:020000040000fa
:080000000002040000000000f2
:020000040000fa
:04000800e20300000f
:020000040000fa
:04000c0048030000a5
:020000040000fa
:040010006803000081
:020000040000fa
:0400140022040000c2
:020000040000fa
:0400180002040000de
:020000040000fa
:04001c004404000098
:020000040000fa
:040020008803000051
:020000040000fa
:040024004404000090
:020000040000fa
:04002800440400008c
:020000040000fa
:04002c004404000088
:020000040000fa
:040030004404000084
:020000040000fa
:040034004404000080
:020000040000fa
:04003800440400007c
:020000040000fa
:04003c004404000078
:020000040000fa
:040040004404000074
:020000040000fa
:040044004404000070
:020000040000fa
:04004800440400006c
:020000040000fa
:04004c004404000068
:020000040000fa
:040050004404000064
:020000040000fa
:040054004404000060
:020000040000fa
:04005800440400005c
:020000040000fa
:04005c004404000058
:020000040000fa
:040060004404000054
:020000040000fa
:040064004404000050
:020000040000fa
:04006800440400004c
:020000040000fa
:04006c004404000048
:020000040000fa
:040070004404000044
:020000040000fa
:040074004404000040
:020000040000fa
:04007800440400003c
:020000040000fa
:04007c004404000038
:020000040000fa
:040080004404000034
:020000040000fa
:040084004404000030
:020000040000fa
:04008800440400002c
:020000040000fa
:04008c004404000028
:020000040000fa
:040090004404000024
:020000040000fa
:040094004404000020
:020000040000fa
:04009800440400001c
:020000040000fa
:04009c004404000018
:020000040000fa
:0400a0004404000014
:020000040000fa
:0400a4004404000010
:020000040000fa
:0400a800440400000c
:020000040000fa
:0400ac004404000008
:020000040000fa
:0400b0004404000004
:020000040000fa
:0400b4004404000000
:020000040000fa
:0400b80044040000fc
:020000040000fa
:0400bc0044040000f8
:020000040000fa
:0400c00044040000f4
:020000040000fa
:0400c40044040000f0
:020000040000fa
:0400c80044040000ec
:020000040000fa
:0400cc0044040000e8
:020000040000fa
:0400d00044040000e4
:020000040000fa
:0400d40044040000e0
:020000040000fa
:0400d80044040000dc
:020000040000fa
:0400dc0022030000fb
:020000040000fa
:0400e00044040000d4
:020000040000fa
:0400e40044040000d0
:020000040000fa
:0400e80044040000cc
:020000040000fa
:0400ec0044040000c8
:020000040000fa
:0400f00044040000c4
:020000040000fa
:0400f40044040000c0
:020000040000fa
:0400f80044040000bc
:020000040000fa
:0400fc0044040000b8
:020000040000fa
:0401000044040000b3
:020000040000fa
:0401040044040000af
:020000040000fa
:0401080044040000ab
:020000040000fa
:04010c0044040000a7
:020000040000fa
:0401100044040000a3
:020000040000fa
:04011400440400009f
:020000040000fa
:04011800440400009b
:020000040000fa
:04011c004404000097
:020000040000fa
:040120004404000093
:020000040000fa
:04012400440400008f
:020000040000fa
:04012800440400008b
:020000040000fa
:04012c004404000087
:020000040000fa
:040130004404000083
:020000040000fa
:04013400440400007f
:020000040000fa
:04013800440400007b
:020000040000fa
:04013c004404000077
:020000040000fa
:040140004404000073
:020000040000fa
:04014400440400006f
:020000040000fa
:04014800440400006b
:020000040000fa
:04014c004404000067
:020000040000fa
:040150004404000063
:020000040000fa
:04015400440400005f
:020000040000fa
:04015800440400005b
:020000040000fa
:04015c004404000057
:020000040000fa
:040160004404000053
:020000040000fa
:04016400440400004f
:020000040000fa
:04016800440400004b
:020000040000fa
:04016c004404000047
:020000040000fa
:040170004404000043
:020000040000fa
:04017400440400003f
:020000040000fa
:04017800440400003b
:020000040000fa
:04017c004404000037
:020000040000fa
:040180004404000033
:020000040000fa
:04018400440400002f
:020000040000fa
:04018800440400002b
:020000040000fa
:04018c004404000027
:020000040000fa
:040190004404000023
:020000040000fa
:04019400440400001f
:020000040000fa
:04019800440400001b
:020000040000fa
:04019c004404000017
:020000040000fa
:0401a0004404000013
:020000040000fa
:0401a400440400000f
:020000040000fa
:0401a800440400000b
:020000040000fa
:0401ac004404000007
:020000040000fa
:0401b0004404000003
:020000040000fa
:0401b40044040000ff
:020000040000fa
:0401b80044040000fb
:020000040000fa
:0401bc0044040000f7
:020000040000fa
:0401c00044040000f3
:020000040000fa
:0401c40044040000ef
:020000040000fa
:0401c80044040000eb
:020000040000fa
:0401cc0044040000e7
:020000040000fa
:0401d00044040000e3
:020000040000fa
:0401d40044040000df
:020000040000fa
:0401d80044040000db
:020000040000fa
:0401dc0044040000d7
:020000040000fa
:0401e00044040000d3
:020000040000fa
:0401e40044040000cf
:020000040000fa
:0401e80044040000cb
:020000040000fa
:0401ec0044040000c7
:020000040000fa
:0401f00044040000c3
:020000040000fa
:0401f40044040000bf
:020000040000fa
:0401f80044040000bb
:020000040000fa
:0401fc0044040000b7
:020000040000fa
:0402000044040000b2
:020000040000fa
:0402040044040000ae
:020000040000fa
:0402080044040000aa
:020000040000fa
:04020c0044040000a6
:020000040000fa
:0402100044040000a2
:020000040000fa
:04021400440400009e
:020000040000fa
:04021800440400009a
:020000040000fa
:04021c004404000096
:020000040000fa
:040220004404000092
:020000040000fa
:04022400440400008e
:020000040000fa
:04022800440400008a
:020000040000fa
:04022c004404000086
:020000040000fa
:040230004404000082
:020000040000fa
:04023400440400007e
:020000040000fa
:04023800440400007a
:020000040000fa
:04023c004404000076
:020000040000fa
:040240004404000072
:020000040000fa
:04024400440400006e
:020000040000fa
:04024800440400006a
:020000040000fa
:04024c004404000066
:020000040000fa
:040250004404000062
:020000040000fa
:04025400440400005e
:020000040000fa
:04025800440400005a
:020000040000fa
:04025c004404000056
:020000040000fa
:040260004404000052
:020000040000fa
:04026400440400004e
:020000040000fa
:04026800440400004a
:020000040000fa
:04026c004404000046
:020000040000fa
:040270004404000042
:020000040000fa
:04027400440400003e
:020000040000fa
:04027800440400003a
:020000040000fa
:04027c004404000036
:020000040000fa
:040280004404000032
:020000040000fa
:04028400440400002e
:020000040000fa
:04028800440400002a
:020000040000fa
:04028c004404000026
:020000040000fa
:040290004404000022
:020000040000fa
:04029400440400001e
:020000040000fa
:04029800440400001a
:020000040000fa
:04029c004404000016
:020000040000fa
:0402a0004404000012
:020000040000fa
:0402a400440400000e
:020000040000fa
:0402a800440400000a
:020000040000fa
:0402ac004404000006
:020000040000fa
:0402b0004404000002
:020000040000fa
:0402b40044040000fe
:020000040000fa
:0402b80044040000fa
:020000040000fa
:0402bc0044040000f6
:020000040000fa
:0402c00044040000f2
:020000040000fa
:0402c40044040000ee
:020000040000fa
:0402c80044040000ea
:020000040000fa
:0402cc0044040000e6
:020000040000fa
:0402d00044040000e2
:020000040000fa
:0402d40044040000de
:020000040000fa
:0402d80044040000da
:020000040000fa
:0402dc0044040000d6
:020000040000fa
:0402e00044040000d2
:020000040000fa
:0402e40044040000ce
:020000040000fa
:0402e80044040000ca
:020000040000fa
:0402ec0044040000c6
:020000040000fa
:0402f00044040000c2
:020000040000fa
:0402f40044040000be
:020000040000fa
:0402f80044040000ba
:020000040000fa
:0402fc0044040000b6
:020000040000fa
:0403000044040000b1
:020000040000fa
:0403040044040000ad
:020000040000fa
:0403080044040000a9
:020000040000fa
:04030c0044040000a5
:020000040000fa
:0403100044040000a1
:020000040000fa
:04031400440400009d
:020000040000fa
:040318004404000099
:020000040000fa
:04031c004404000095
:020000040000fa
:040320004404000091
:020000040000fa
:04032400440400008d
:020000040000fa
:040328004404000089
:020000040000fa
:04032c004404000085
:020000040000fa
:040330004404000081
:020000040000fa
:04033400440400007d
:020000040000fa
:10040000af0221000eff26000e0188000000000050
:10041000000020000000e000020032000001200087
:100420002002880014000700190107000000e00006
:1004300003003a00208a200001002000020037005b
:100440000000200001002000810f70000100320038
:100450000f000700000020000000e0000200320052
:100460000000020000000000b808020000000000c8
:100470000040da000000fe00400120000000e00023
:1004800002003200002020009001880000000600d9
:10049000a1028800800478000000eb001f003700f4
:1004a000e284440054a0b4009905ba00e2844400f8
:1004b00054a0b4009906ba00e284440054a0b400e9
:1004c0000006eb00476fde00fd07b200ae018800ba
:1004d000636ce10003003a000ad801000000eb0061
:1004e0000e003700606ce10008003a00004deb00a0
:1004f0000a05e800020039003420ec000af0a000f0
:100500008b05e900f9ff3e00040037006168e10057
:10051000010032000086eb000b00070019c7ba008b
:100520001905ba000e04e00003003a000a00e000da
:10053000dbff3a0000000600fe07b200ae028800b2
:100540008a047800f5ff37000cd0a300e20f4d00bd
:100550001c003b0089027800354dba000a05e8000e
:10056000020039003420ec000af0a0008b05e900fd
:100570000f003200254dba000a05e80002003900dc
:100580003420ec000af0a0008b05e90008003200de
:100590000c00e0000600320015cdba000a05e800a4
:1005a000020039003420ec000af0a0008b05e900bd
:1005b0008984e80054a0b4000b00e000e2ff3a0098
:1005c000000006009902ba00055d78008b05e9007d
:1005d000f7ff3200c82ade00055d78008b05e900d0
:1005e000f3ff32000c00e000f1ff320019ddba0029
:1005f000eeff3700700604000000000086060400cd
:10060000000000009e06040000000000a606040092
:1006100000000000d2060400000000000e070400e5
:1006200000000000f8060400000000002407040099
:10063000000000003a070400000000006a06040001
:10064000000000003600f800809fbe00829fbe00c0
:10065000849fbe00869fbe000000fa0030808000ac
:100660000000e00002003200308080000000010045
:1006700005a8a9000080fa004f03be004f02be008b
:100680004f01be004f00be003600f90000400600da
:100690003600f800809fbe00829fbe00849fbe008f
:1006a000869fbe000000fa00c068a900200020005c
:1006b000960207000080fa004f03be004f02be0002
:1006c0004f01be004f00be003600f900004006009a
:1006d0003600f800809fbe00829fbe00849fbe004f
:1006e000869fbe000000fa00c608a9007000200026
:1006f000860207000080fa004f03be004f02be00d2
:100700004f01be004f00be003600f9000040060059
:100710003600f800809fbe00829fbe00849fbe000e
:10072000869fbe000000fa00204680007000600036
:100730000000e00003003200c488a900a0002000ef
:100740007202070021468000000220000080600045
:100750000000e00003003200c4a8a90090002000bf
:100760006a0207002146800000102000008060001f
:100770000000e00003003200c508a900c00020000e
:1007800062020700214680000020200000806000f7
:100790000000e00003003200c528a900d0002000be
:1007a0005a02070020468000610060000000e0005f
:1007b00003003200c408a900b00020005302070063
:1007c000ffff37003600f800809fbe00829fbe000a
:1007d000849fbe00869fbe000000fa00c028a900ca
:1007e0000000eb00490207000080fa004f03be0042
:1007f0004f02be004f01be004f00be003600f900a0
:10080000004006003600f800809fbe00829fbe00b8
:10081000849fbe00869fbe000000fa00c088a90029
:1008200030002000390207000080fa004f03be00ac
:100830004f02be004f01be004f00be003600f9005f
:10084000004006003600f800809fbe00829fbe0078
:10085000849fbe00869fbe000000fa00320207009f
:10086000c048a90010002000280207000080fa00fc
:100870004f03be004f02be004f01be004f00be003e
:100880003600f900004006000040da000000fe00db
:04089000000005005f
:020000040000fa
:1008940070060000860600009e060000a606000002
:1008a400d20600000e070000f8060000240700002e
:0808b4003a070000810000007a
:020000040000fa
:1008bc000400fa00100798000040eb00004f78008d
:1008cc001e0090000000e00002003d0010c0b300cc
:1008dc00004f78001e4078000080fa0000000600ef
:1008ec000400fa00100798000040eb00004f78005d
:1008fc009e00900000002400008060000000e000da
:10090c000200320010c0b300004f78001e40780087
:10091c000080fa00000006000400fa00100798009e
:10092c000040eb00004f78009e009000002020005b
:10093c00008060000000e0000200320010c0b30034
:10094c00004f78001e4078000080fa00000006007e
:10095c000400fa00100798000040eb00004f7800ec
:10096c009e00900000082000008060000000e00065
:10097c000200320010c0b300004f78001e40780017
:10098c000080fa00000006000400fa00100798002e
:10099c000040eb00004f78009e0090000004200007
:1009ac00008060000000e0000200320010c0b300c4
:1009bc00004f78001e4078000080fa00000006000e
:1009cc000400fa00100798000040eb00004f78007c
:1009dc001e009000700060000000e0000200320079
:1009ec0010c0b300004f78001e4078000080fa0061
:1009fc00000006000200fa00000f78009e80ea005a
:100a0c00007c800000806000007c88000080fa0080
:100a1c00000006000000fa00007c80000080fa0054
:100a2c00000006000200fa00faff0700000f780031
:100a3c001e0078009eff07000004e0000200320058
:100a4c0000002800ebff07001e007800a4ff070041
:100a5c000004e0000200320000002400e5ff070063
:100a6c001e007800acff07000004e000020032001a
:100a7c0000202000dfff07001e007800b4ff0700f5
:100a8c000004e0000200320000082000d9ff07003b
:100a9c001e007800bcff07000004e00002003200da
:100aac0000042000d3ff07001e007800c4ff0700dd
:100abc000004e0000200320000012000cdff07001e
:100acc000080fa00000006000000fa00802fef0002
:100adc000080fa00000006000000fa00c3e8a8003d
:100aec0000000000000000000080fa00000006007a
:100afc000000fa00c3e8a90000000000000000009c
:100b0c000080fa00000006000000fa00f8ff070061
:100b1c004d010700f0ff0700a066200061000700f0
:100b2c0025a8a8000080fa00000006000000fa00ca
:100b3c0000002800e00288000080fa000000060097
:100b4c000000fa00000024000003880010c0b3006d
:100b5c0000f0b7000080fa00000006000000fa0068
:100b6c000070ef0000000000400380006100600096
:100b7c000000e000fcff3200800020002003880011
:100b8c000080fa00000006000200fa000040eb00b2
:100b9c00004f780040038000610060000040780046
:100bac000004e0000200320010c0b300004f7800d7
:100bbc001e4078000080fa00000006000000fa00d9
:100bcc0000d0bf000080fa00000006000400fa000c
:100bdc006000b800008fbe00b00380008000eb0006
:100bec00c000dd0000002000008fbe00a0038000cc
:100bfc008000eb003e017000ae8170000200be0070
:100c0c000080fa00000006000400fa006000b80042
:100c1c00008fbe00d00380008000eb00c000dd0020
:100c2c0000002000008fbe00c00380008000eb009d
:100c3c003e017000ae8170000200be000080fa0020
:100c4c00000006000200fa000000eb00000f780024
:100c5c0041038000100e2000008f60001e00780001
:100c6c000080fa00000006000400fa006000b800e2
:100c7c00008fbe00700380008000eb00c000dd0020
:100c8c0000002000008fbe00600380008000eb009d
:100c9c003e017000ae8170000200be000080fa00c0
:100cac00000006000200fa00000f78001e00780019
:100cbc000000e000020032009e00780031808800c5
:100ccc000080fa00000006000000fa000080fa0024
:100cdc00000006000000fa00bc22ef00ae22ef007c
:100cec00b022ef00b422ef00c422ef00c622ef00c6
:100cfc0010082000601588000080fa000000060033
:100d0c000000fa000a000700bc22ef00ac22ef0042
:100d1c00ae22ef00b022ef0080022000a015880068
:100d2c00c422ef00c622ef000080fa00000006008b
:100d3c000000fa00ade2a9000080fa0000000600f5
:100d4c000400fa00204798000040eb00004f7800a8
:100d5c006115800000002800008060000000e000a9
:100d6c000a003a002e4090000080fb0080004000fa
:100d7c00c0452800008040001000780060158800f5
:100d8c00ade2a80010c0b300004f78001e40780000
:100d9c000080fa00000006000200fa00004f780004
:100dac0000000000a0158000620060000000e00060
:100dbc00fcff3a001e80fb00c015880000000000fc
:100dcc00a115800000022000008060000000e000ff
:100ddc00fbff3a00c0158000004078000080fa004c
:100dec00000006000200fa00004f7800000000002e
:100dfc00a0158000620060000000e000fcff3a00db
:100e0c001e80fb00c01588000080fa000000060060
:100e1c000000fa0000000000a11580000002200074
:100e2c00008060000000e000fbff3a00c01580006d
:100e3c00004078000080fa00000006000000fa0074
:100e4c00a1158000000220000080600000f0a700c7
:100e5c000000ea000000e9004f00de0000407800ce
:100e6c000080fa00000006000000fa00a0158000c7
:100e7c006200600000f0a7000000ea000000e9003a
:100e8c004f00de00004078000080fa0000000600f1
:100e9c000000fa0010002300307c8800600920005c
:100eac00407c88008c2fef0010042000507c8800c0
:100ebc0010102000707c880060092000807c880065
:100ecc0010042000907c880000502000d07c88000a
:100edc00b82fef00ba2fef00be2fef00002def0060
:100eec00a02fef00a42fef00a62fef00a82fef00ec
:100efc00aa2fef00ae2fef00b02fef00b22fef00b4
:100f0c000001eb0080072000a109200053f820000d
:100f1c008049780081497800824978000001eb0013
:100f2c00600420007105200043f8200080497800ff
:100f3c0081497800824978000080fa0000000600a0
:100f4c000000fa00707c8000ee800a0000000000b7
:100f5c000080fb0000f0a7000000ea000000ea009f
:100f6c004f00de00004078000080fa000000060010
:100f7c000000fa00062eef00222eef003e2eef00ae
:100f8c005a2eef00762eef00f00120001070880032
:100f9c00d0ff2f00f07088000080eb00d07188002b
:100fac000080eb00b07288000080eb00907388002a
:100fbc000a2eef00262eef00422eef005e2eef00e1
:100fcc007a2eef000c2eef00282eef00442eef00af
:100fdc00602eef007c2eef00082eef00242eef0089
:100fec00402eef005c2eef00782eef00f001200079
:100ffc0000708800d0092000e0708800f00c200000
:10100c00c071880000c02200a0728800f00020008f
:10101c00807388000080fa00000006000000fe00cb
:10102c003a06020000000000821f78001280800047
:10103c000000110002002000810019004f0178000f
:10104c00000006000000fe00801f7800811f780061
:10105c00821f780060038000801f78003a0602002f
:10106c00000000004f017800020150000201e9006d
:10107c00128088004f017800cf0078004f00780074
:10108c00000006000000fa00b1428000f0f82f00ca
:10109c00008060000040a000b04288000080fa0090
:1010ac00000006000000fa00b1428000f0f82f00aa
:1010bc00008060000060a000b04288000080fa0050
:1010cc00000006000000fa00c3e8a80000000000c1
:1010dc00000000000080fa00000006000000fa008a
:1010ec006bff0700a2ff070087fe0700f9fe070051
:1010fc00f4ff0700e3ff07000080fa000000060081
:10110c000200fa00000f78009e00780041808800f1
:10111c000000fe000080fa00000006000000fa004b
:10112c00a000210080077800200221000001880027
:08113c000080fa00000006002b
:020000040000fa
:101144000010000008000000800000000a100000e9
:1011540020000000800000000810000002000000d1
:0c11640082000000ffff000000000000ff
:020000040000fa
:0c1170000000fa00dcff0700ffff370062
:020000040000fa
:020000040005f5
:047e0000ffffff0081
:020000040000fa
:020000040005f5
:047e2000ffffff0061
:020000040000fa
:020000040005f5
:047e300078ffff00d8
:020000040000fa
:020000040005f5
:047e3800bfffff0089
:020000040000fa
:020000040005f5
:047e4000ff7fff00c1
:020000040000fa
:020000040005f5
:047e4800ffffff0039
:020000040000fa
:020000040005f5
:047e5000dfffff0051
:020000040000fa
:020000040005f5
:047e58000000ff0027
:020000040000fa
:020000040005f5
:047e60000000ff001f
:020000040000fa
:020000040005f5
:047e68000000ff0017
:020000040000fa
:020000040005f5
:047e70000000ff000f
:020000040000fa
:020000040005f5
:047e7800ffffff0009
:020000040000fa
:020000040005f5
:047e8000fffcff0004
:020000040000fa
:020000040005f5
:047e8800ffffff00f9
:020000040000fa
:020000040005f5
:047ff800ffffff0088
:020000040000fa
:020000040100f9
:04300000ffffff00cf
:00000001FF
